{"abi":[{"type":"constructor","inputs":[{"name":"_stablecoin","type":"address","internalType":"address"},{"name":"_creditScoring","type":"address","internalType":"address"}],"stateMutability":"nonpayable"},{"type":"function","name":"borrowForOptions","inputs":[{"name":"_borrower","type":"address","internalType":"address"},{"name":"_amount","type":"uint256","internalType":"uint256"}],"outputs":[{"name":"","type":"uint256","internalType":"uint256"}],"stateMutability":"nonpayable"},{"type":"function","name":"borrowWithCollateral","inputs":[{"name":"_collateralAmount","type":"uint256","internalType":"uint256"},{"name":"_loanDurationDays","type":"uint256","internalType":"uint256"}],"outputs":[],"stateMutability":"nonpayable"},{"type":"function","name":"claimDefaultedLoan","inputs":[{"name":"_loanId","type":"uint256","internalType":"uint256"}],"outputs":[],"stateMutability":"nonpayable"},{"type":"function","name":"creditScoring","inputs":[],"outputs":[{"name":"","type":"address","internalType":"contract CreditScoring"}],"stateMutability":"view"},{"type":"function","name":"defaultThresholdDays","inputs":[],"outputs":[{"name":"","type":"uint256","internalType":"uint256"}],"stateMutability":"view"},{"type":"function","name":"depositToPool","inputs":[{"name":"_amount","type":"uint256","internalType":"uint256"}],"outputs":[],"stateMutability":"nonpayable"},{"type":"function","name":"getBorrowerStats","inputs":[{"name":"_borrower","type":"address","internalType":"address"}],"outputs":[{"name":"totalLoans","type":"uint256","internalType":"uint256"},{"name":"collateralLocked","type":"uint256","internalType":"uint256"},{"name":"activeLoans","type":"uint256","internalType":"uint256"},{"name":"repaidLoans","type":"uint256","internalType":"uint256"}],"stateMutability":"view"},{"type":"function","name":"getInterestRateForScore","inputs":[{"name":"_creditScore","type":"uint256","internalType":"uint256"}],"outputs":[{"name":"","type":"uint256","internalType":"uint256"}],"stateMutability":"view"},{"type":"function","name":"getLenderStats","inputs":[{"name":"_lender","type":"address","internalType":"address"}],"outputs":[{"name":"depositAmount","type":"uint256","internalType":"uint256"},{"name":"depositTime","type":"uint256","internalType":"uint256"},{"name":"interestEarned","type":"uint256","internalType":"uint256"},{"name":"maxWithdrawable","type":"uint256","internalType":"uint256"}],"stateMutability":"view"},{"type":"function","name":"getLoan","inputs":[{"name":"_loanId","type":"uint256","internalType":"uint256"}],"outputs":[{"name":"","type":"tuple","internalType":"struct LendingPool.Loan","components":[{"name":"borrower","type":"address","internalType":"address"},{"name":"loanId","type":"uint256","internalType":"uint256"},{"name":"principalAmount","type":"uint256","internalType":"uint256"},{"name":"collateralAmount","type":"uint256","internalType":"uint256"},{"name":"interestRate","type":"uint256","internalType":"uint256"},{"name":"borrowTime","type":"uint256","internalType":"uint256"},{"name":"repaymentDeadline","type":"uint256","internalType":"uint256"},{"name":"amountRepaid","type":"uint256","internalType":"uint256"},{"name":"isRepaid","type":"bool","internalType":"bool"},{"name":"isDefaulted","type":"bool","internalType":"bool"},{"name":"debtIdInCreditScoring","type":"uint256","internalType":"uint256"}]}],"stateMutability":"view"},{"type":"function","name":"getMaxBorrowAmount","inputs":[{"name":"_borrower","type":"address","internalType":"address"},{"name":"_collateralAmount","type":"uint256","internalType":"uint256"}],"outputs":[{"name":"","type":"uint256","internalType":"uint256"}],"stateMutability":"view"},{"type":"function","name":"getPoolStats","inputs":[],"outputs":[{"name":"currentBalance","type":"uint256","internalType":"uint256"},{"name":"totalEarned","type":"uint256","internalType":"uint256"},{"name":"numLenders","type":"uint256","internalType":"uint256"},{"name":"platformFees","type":"uint256","internalType":"uint256"}],"stateMutability":"view"},{"type":"function","name":"getRemainingAmount","inputs":[{"name":"_loanId","type":"uint256","internalType":"uint256"}],"outputs":[{"name":"","type":"uint256","internalType":"uint256"}],"stateMutability":"view"},{"type":"function","name":"getUserLoanCount","inputs":[{"name":"_user","type":"address","internalType":"address"}],"outputs":[{"name":"","type":"uint256","internalType":"uint256"}],"stateMutability":"view"},{"type":"function","name":"getUserLoans","inputs":[{"name":"_user","type":"address","internalType":"address"}],"outputs":[{"name":"","type":"uint256[]","internalType":"uint256[]"}],"stateMutability":"view"},{"type":"function","name":"interestRates","inputs":[{"name":"","type":"uint256","internalType":"uint256"}],"outputs":[{"name":"","type":"uint256","internalType":"uint256"}],"stateMutability":"view"},{"type":"function","name":"lenderDeposits","inputs":[{"name":"","type":"address","internalType":"address"}],"outputs":[{"name":"lender","type":"address","internalType":"address"},{"name":"depositTime","type":"uint256","internalType":"uint256"},{"name":"depositAmount","type":"uint256","internalType":"uint256"},{"name":"interestEarned","type":"uint256","internalType":"uint256"},{"name":"lastWithdrawTime","type":"uint256","internalType":"uint256"}],"stateMutability":"view"},{"type":"function","name":"lenders","inputs":[{"name":"","type":"uint256","internalType":"uint256"}],"outputs":[{"name":"","type":"address","internalType":"address"}],"stateMutability":"view"},{"type":"function","name":"loans","inputs":[{"name":"","type":"uint256","internalType":"uint256"}],"outputs":[{"name":"borrower","type":"address","internalType":"address"},{"name":"loanId","type":"uint256","internalType":"uint256"},{"name":"principalAmount","type":"uint256","internalType":"uint256"},{"name":"collateralAmount","type":"uint256","internalType":"uint256"},{"name":"interestRate","type":"uint256","internalType":"uint256"},{"name":"borrowTime","type":"uint256","internalType":"uint256"},{"name":"repaymentDeadline","type":"uint256","internalType":"uint256"},{"name":"amountRepaid","type":"uint256","internalType":"uint256"},{"name":"isRepaid","type":"bool","internalType":"bool"},{"name":"isDefaulted","type":"bool","internalType":"bool"},{"name":"debtIdInCreditScoring","type":"uint256","internalType":"uint256"}],"stateMutability":"view"},{"type":"function","name":"nextDebtId","inputs":[],"outputs":[{"name":"","type":"uint256","internalType":"uint256"}],"stateMutability":"view"},{"type":"function","name":"nextLoanId","inputs":[],"outputs":[{"name":"","type":"uint256","internalType":"uint256"}],"stateMutability":"view"},{"type":"function","name":"owner","inputs":[],"outputs":[{"name":"","type":"address","internalType":"address"}],"stateMutability":"view"},{"type":"function","name":"platformFeeCollected","inputs":[],"outputs":[{"name":"","type":"uint256","internalType":"uint256"}],"stateMutability":"view"},{"type":"function","name":"platformFeePercentage","inputs":[],"outputs":[{"name":"","type":"uint256","internalType":"uint256"}],"stateMutability":"view"},{"type":"function","name":"poolBalance","inputs":[],"outputs":[{"name":"","type":"uint256","internalType":"uint256"}],"stateMutability":"view"},{"type":"function","name":"renounceOwnership","inputs":[],"outputs":[],"stateMutability":"nonpayable"},{"type":"function","name":"repayLoan","inputs":[{"name":"_loanId","type":"uint256","internalType":"uint256"},{"name":"_amount","type":"uint256","internalType":"uint256"}],"outputs":[],"stateMutability":"nonpayable"},{"type":"function","name":"repayOptionsDebt","inputs":[{"name":"_debtId","type":"uint256","internalType":"uint256"},{"name":"_amount","type":"uint256","internalType":"uint256"}],"outputs":[],"stateMutability":"nonpayable"},{"type":"function","name":"setDefaultThreshold","inputs":[{"name":"_days","type":"uint256","internalType":"uint256"}],"outputs":[],"stateMutability":"nonpayable"},{"type":"function","name":"setInterestRate","inputs":[{"name":"_scoreRange","type":"uint256","internalType":"uint256"},{"name":"_basisPoints","type":"uint256","internalType":"uint256"}],"outputs":[],"stateMutability":"nonpayable"},{"type":"function","name":"stablecoin","inputs":[],"outputs":[{"name":"","type":"address","internalType":"contract IERC20"}],"stateMutability":"view"},{"type":"function","name":"totalCollateralLocked","inputs":[{"name":"","type":"address","internalType":"address"}],"outputs":[{"name":"","type":"uint256","internalType":"uint256"}],"stateMutability":"view"},{"type":"function","name":"totalInterestEarned","inputs":[],"outputs":[{"name":"","type":"uint256","internalType":"uint256"}],"stateMutability":"view"},{"type":"function","name":"transferOwnership","inputs":[{"name":"newOwner","type":"address","internalType":"address"}],"outputs":[],"stateMutability":"nonpayable"},{"type":"function","name":"userLoans","inputs":[{"name":"","type":"address","internalType":"address"},{"name":"","type":"uint256","internalType":"uint256"}],"outputs":[{"name":"","type":"uint256","internalType":"uint256"}],"stateMutability":"view"},{"type":"function","name":"withdrawFromPool","inputs":[{"name":"_amount","type":"uint256","internalType":"uint256"}],"outputs":[],"stateMutability":"nonpayable"},{"type":"event","name":"CollateralClaimed","inputs":[{"name":"borrower","type":"address","indexed":true,"internalType":"address"},{"name":"loanId","type":"uint256","indexed":true,"internalType":"uint256"},{"name":"amount","type":"uint256","indexed":false,"internalType":"uint256"}],"anonymous":false},{"type":"event","name":"DefaultThresholdUpdated","inputs":[{"name":"newThreshold","type":"uint256","indexed":false,"internalType":"uint256"}],"anonymous":false},{"type":"event","name":"DepositedToPool","inputs":[{"name":"lender","type":"address","indexed":true,"internalType":"address"},{"name":"amount","type":"uint256","indexed":false,"internalType":"uint256"}],"anonymous":false},{"type":"event","name":"InterestRateSet","inputs":[{"name":"scoreRange","type":"uint256","indexed":false,"internalType":"uint256"},{"name":"basisPoints","type":"uint256","indexed":false,"internalType":"uint256"}],"anonymous":false},{"type":"event","name":"LoanCreated","inputs":[{"name":"borrower","type":"address","indexed":true,"internalType":"address"},{"name":"loanId","type":"uint256","indexed":true,"internalType":"uint256"},{"name":"principal","type":"uint256","indexed":false,"internalType":"uint256"},{"name":"collateral","type":"uint256","indexed":false,"internalType":"uint256"},{"name":"interestRate","type":"uint256","indexed":false,"internalType":"uint256"},{"name":"deadline","type":"uint256","indexed":false,"internalType":"uint256"}],"anonymous":false},{"type":"event","name":"LoanDefaulted","inputs":[{"name":"borrower","type":"address","indexed":true,"internalType":"address"},{"name":"loanId","type":"uint256","indexed":true,"internalType":"uint256"}],"anonymous":false},{"type":"event","name":"LoanFullyRepaid","inputs":[{"name":"borrower","type":"address","indexed":true,"internalType":"address"},{"name":"loanId","type":"uint256","indexed":true,"internalType":"uint256"},{"name":"totalRepaid","type":"uint256","indexed":false,"internalType":"uint256"},{"name":"interestPaid","type":"uint256","indexed":false,"internalType":"uint256"}],"anonymous":false},{"type":"event","name":"LoanPartiallyRepaid","inputs":[{"name":"borrower","type":"address","indexed":true,"internalType":"address"},{"name":"loanId","type":"uint256","indexed":true,"internalType":"uint256"},{"name":"amount","type":"uint256","indexed":false,"internalType":"uint256"},{"name":"interestPaid","type":"uint256","indexed":false,"internalType":"uint256"}],"anonymous":false},{"type":"event","name":"OwnershipTransferred","inputs":[{"name":"previousOwner","type":"address","indexed":true,"internalType":"address"},{"name":"newOwner","type":"address","indexed":true,"internalType":"address"}],"anonymous":false},{"type":"event","name":"PoolBorrowedForOptions","inputs":[{"name":"borrower","type":"address","indexed":true,"internalType":"address"},{"name":"amount","type":"uint256","indexed":false,"internalType":"uint256"},{"name":"debtId","type":"uint256","indexed":false,"internalType":"uint256"}],"anonymous":false},{"type":"event","name":"WithdrawnFromPool","inputs":[{"name":"lender","type":"address","indexed":true,"internalType":"address"},{"name":"amount","type":"uint256","indexed":false,"internalType":"uint256"},{"name":"interestEarned","type":"uint256","indexed":false,"internalType":"uint256"}],"anonymous":false},{"type":"error","name":"CannotWithdraw","inputs":[]},{"type":"error","name":"InsufficientBalance","inputs":[]},{"type":"error","name":"InsufficientPoolBalance","inputs":[]},{"type":"error","name":"InvalidAddress","inputs":[]},{"type":"error","name":"InvalidAmount","inputs":[]},{"type":"error","name":"LoanAlreadyRepaid","inputs":[]},{"type":"error","name":"LoanIsDefaulted","inputs":[]},{"type":"error","name":"LoanNotFound","inputs":[]},{"type":"error","name":"NoDeposit","inputs":[]},{"type":"error","name":"OnlyOptionsContract","inputs":[]},{"type":"error","name":"OwnableInvalidOwner","inputs":[{"name":"owner","type":"address","internalType":"address"}]},{"type":"error","name":"OwnableUnauthorizedAccount","inputs":[{"name":"account","type":"address","internalType":"address"}]},{"type":"error","name":"ReentrancyGuardReentrantCall","inputs":[]}],"bytecode":{"object":"0x6080346200018057620023c290601f38839003908101601f19168201906001600160401b0382118383101762000184578083916040958694855283398101031262000180576200005d6020620000558362000198565b920162000198565b600190817f9b779b17422d0df92223018b32b4d1fa46e071723d6817e2486d003becc55f0055331562000169575f8054336001600160a01b0319808316821784558751939690946001600160a01b03949093909285929183167f8be0079c531659141344cd1fd0a4f28419497f9722a3daafe3b4186f6b6457e08a80a386600855866009556007600c55600a600d551690811580156200015e575b6200014f5750918391859360c897958997541617845516906002541617600255818052600f6020526104b083832055815261032082822055600281526101f482822055600381522055516122149081620001ae8239f35b63e6c4247b60e01b8152600490fd5b5083831615620000f8565b8351631e4fbdf760e01b81525f6004820152602490fd5b5f80fd5b634e487b7160e01b5f52604160045260245ffd5b51906001600160a01b0382168203620001805756fe6080604081815260049182361015610015575f80fd5b5f9060e08235811c91826302bf321f14611b385750816309ae34b4146119d957816327f8dce3146117bb57816330fc43ed146115f15781633af86e66146114d3578163504006ca146113e95781635847ddbe146113ca5781635b9dac891461137557816368b0e070146111a5578163715018a61461114c57816380b88a2e146110b957816387c514591461109a5781638a700b5314610d435781638da5cb5b14610d1b57816390e1614114610ce3578163929eea2114610ca157816396365d4414610c825781639883688f14610c595781639939835814610bf25781639a4d8ba114610bc9578163aa3b686714610b92578163ab1c297e14610b72578163af792b7214610a23578163b620ed5314610a04578163b7d93f34146109e5578163bbb85188146109a7578163c5246bf514610958578163ca5c500714610939578163cdd78cfc1461091a578163d8bad5bd146108c3578163def750ff146103ec578163e1ec3c681461034057508063e9cbd82214610313578063f253fe0914610264578063f2fde38b146101d75763f6252ff2146101af575f80fd5b346101d45760203660031901126101d457506101cd60209235612150565b9051908152f35b80fd5b509134610260576020366003190112610260576101f2611be4565b906101fb611c72565b6001600160a01b0391821692831561024a5750505f54826001600160601b0360a01b8216175f55167f8be0079c531659141344cd1fd0a4f28419497f9722a3daafe3b4186f6b6457e05f80a380f35b51631e4fbdf760e01b8152908101849052602490fd5b8280fd5b509190346102605760203660031901126102605761030f906102de610287611be4565b6001600160a01b038181168752600560205295839020835190966102aa82611ce2565b8754168152608060018801549660208301978852600289015498868401998a526003810154606085015201549101526120c5565b93519251936102ed8185611d6b565b9151948594859094939260609260808301968352602083015260408201520152565b0390f35b50903461033c578160031936011261033c5760015490516001600160a01b039091168152602090f35b5080fd5b90508383346103e85760203660031901126103e8578060ff9161016095843581526003602052209060018060a01b0382541694600183015494600284015490600385015490850154600586015491600687015493600788015496600960088a01549901549a81519c8d5260208d01528b015260608a0152608089015260a088015260c0870152850152818116151561010085015260081c161515610120830152610140820152f35b8380fd5b84848492346103e8576103fe36611bfe565b92610407611d8c565b81156108b45783156108b457600a549384156108a457600254825163079bafe360e01b8152338189015261010097916001600160a01b03919089908290602490829086165afa9081156107a1578a91610877575b5051906104688633611ef4565b9788156108675788116108575790816104bf9260015416878c8851928380926323b872dd60e01b8252816020998a96308d3390850160409194939294606082019560018060a01b0380921683521660208201520152565b03925af190811561084d578c91610814575b50156107d1576127106104e6600d548b611e47565b046104fa6104f4828c611dbb565b93611f94565b986008549b6105088d611e5a565b60085562015180808902988904036107be578d80808f948f908f8f8f938f988c8f9688809c429061053891611d6b565b9882519e8f61054681611cc5565b3381528281019682885285820198895260608201998a52608082019a8b5260a082019b428d5260c083019d8e5282019d8e5281019e8f5261012081019d8e52610140019e8f52825260039052209b51166001600160601b0360a01b8c5416178b555160018b01555160028a0155516003890155518c88015551600587015551600686015551600785015560088401915115159082549051151560081b61ff00169160ff169061ffff191617179055519060090155338c52848452868c20805490600160401b8210156107ab57926106766106a9938f96938f8f906106618f918f9061063b868f9d600161066b99018155611c5d565b819291549060031b91821b915f19901b1916179055338c5260068b528b20918254611d6b565b9055600a54611dbb565b600a55600e54611d6b565b600e55600154895163a9059cbb60e01b815233898201908152602081019490945295869492909116928492839160400190565b03925af19081156107a1578a91610768575b501561072f5750507ff1485b563b78e02612d20ef9323eb1cb83f8e1eeb754a120f02f60cc1ff380b49392916106f46107189242611d6b565b90519384933397859094939260609260808301968352602083015260408201520152565b0390a360015f805160206121bf8339815191525580f35b835162461bcd60e51b8152918201526014602482015273131bd85b881d1c985b9cd9995c8819985a5b195960621b604482015260649150fd5b90508181813d831161079a575b61077f8183611cfe565b810103126107965761079090611d20565b8a6106bb565b8980fd5b503d610775565b85513d8c823e3d90fd5b634e487b7160e01b8e526041875260248efd5b634e487b7160e01b8e526011875260248efd5b855162461bcd60e51b8152808501849052601a60248201527f436f6c6c61746572616c207472616e73666572206661696c65640000000000006044820152606490fd5b90508381813d8311610846575b61082b8183611cfe565b810103126108425761083c90611d20565b8c6104d1565b8b80fd5b503d610821565b87513d8e823e3d90fd5b845163bc6072f160e01b81528390fd5b855163162908e360e11b81528490fd5b6108979150893d8b1161089d575b61088f8183611cfe565b810190611dc8565b8a61045b565b503d610885565b815163bc6072f160e01b81528690fd5b5163162908e360e11b81528490fd5b5050346101d457816003193601126101d4576108dd611be4565b6001600160a01b03168152602092909252808220805460243593908410156101d4575060209261090c91611c5d565b91905490519160031b1c8152f35b82843461033c578160031936011261033c57602090600d549051908152f35b82843461033c578160031936011261033c57602090600e549051908152f35b50509134610260576020366003190112610260577f74e220540b8f832845e1e89b5dfdb8b632923018ac953836880d68efcf2160f591602091359061099b611c72565b81600c5551908152a180f35b5050346101d457806003193601126101d45750600a54600b54600754600e549351928352602083019190915260408201526060810191909152608090f35b82843461033c578160031936011261033c57602090600b549051908152f35b82843461033c578160031936011261033c576020906009549051908152f35b82858534610260578060031936011261026057610a3e611be4565b9160243592610a4b611d8c565b8315610b6357600a548411610b54576105dc8402906105db1985830401610b415760025486916001600160a01b0391821690813b156103e8578360649261271089519788968795639d872a2560e01b875216809a8601528b60248601520460448401525af18015610b3757610b23575b5060209350610acc83600a54611dbb565b600a557fca3282c6032fa9b02329843a2583ac34eca27ddf5d5aaa0edc7bd6ad75bb78898260095494610afe86611e5a565b60095581519081528587820152a260015f805160206121bf8339815191525551908152f35b610b2d8591611c9d565b6103e85783610abb565b83513d87823e3d90fd5b634e487b7160e01b865260118352602486fd5b50905163bc6072f160e01b8152fd5b50905163162908e360e11b8152fd5b5050346101d45760203660031901126101d457506101cd60209235611f94565b505091346102605760203660031901126102605760209282916001600160a01b03610bbb611be4565b168252845220549051908152f35b50509134610260576020366003190112610260576020928291358152600f845220549051908152f35b828585346102605760203660031901126102605760a0926001600160a01b0390829082610c1d611be4565b16815260056020522090815416926001820154926002830154916003840154930154938151958652602086015284015260608301526080820152f35b82843461033c578160031936011261033c5760025490516001600160a01b039091168152602090f35b82843461033c578160031936011261033c57602090600a549051908152f35b505091346102605760203660031901126102605735916007548310156101d45750610ccd602092611c14565b905491519160018060a01b039160031b1c168152f35b82843461033c57602036600319011261033c5760209181906001600160a01b03610d0b611be4565b1681526006845220549051908152f35b82843461033c578160031936011261033c57905490516001600160a01b039091168152602090f35b8285853461026057610d5436611bfe565b919092610d5f611d8c565b838552602092600384528286209160018060a01b0380845416801561108a573303611058576008840193845460ff81166110485760081c60ff1661103857831561102857610db4610daf82611e68565b61206a565b94610dc3866002840154611d6b565b948a6007840196610deb885493610dda8584611dbb565b908181111561101f57508094611d6b565b8855610df983600a54611d6b565b600a556001548a516323b872dd60e01b815233818a019081523060208201526040810186905290918d9183918a169082908790829060600103925af18015611015578390610fdf575b610e4c9150611d2d565b875410610fa3575050918791610ebf93600160ff19825416179055600381015491808254168c5260068452888c20610e85848254611dbb565b905580600154169154168b895180968195829463a9059cbb60e01b84528a840160209093929193604081019460018060a01b031681520152565b03925af1908115610f99578891610f60575b5015610f1d57505482519081529283015233917f0d2d91766c0b24e970d7e2ae1b36e42adce4fa6bff076564a3aaaae738a27cf79190a35b60015f805160206121bf8339815191525580f35b835162461bcd60e51b8152908101859052601860248201527f436f6c6c61746572616c2072657475726e206661696c656400000000000000006044820152606490fd5b90508581813d8311610f92575b610f778183611cfe565b81010312610f8e57610f8890611d20565b88610ed1565b8780fd5b503d610f6d565b85513d8a823e3d90fd5b9550979350505050837f546fabbda44be6a1b08cf435d8b2c3b8715154796cdd717e2e1467d5de0a49a6949350519485528401523392a3610f09565b508b81813d831161100e575b610ff58183611cfe565b8101031261026057611009610e4c91611d20565b610e42565b503d610feb565b8b513d85823e3d90fd5b90508094611d6b565b855163162908e360e11b81528390fd5b855163dc0e4f7160e01b81528390fd5b8651630bfc919760e21b81528490fd5b845162461bcd60e51b8152808301879052600c60248201526b2737ba103137b93937bbb2b960a11b6044820152606490fd5b8551630e7e621d60e01b81528390fd5b82843461033c578160031936011261033c576020906008549051908152f35b505091346102605781600319360112610260576110d4611be4565b9260018060a01b03908160025416845193849363079bafe360e01b85528716908401528260246101009586935afa908115611141575091602094916101cd93611123575b505060243590611ef4565b8161113992903d1061089d5761088f8183611cfe565b505f80611118565b8451903d90823e3d90fd5b82346101d457806003193601126101d457611165611c72565b5f80546001600160a01b0319811682556001600160a01b03167f8be0079c531659141344cd1fd0a4f28419497f9722a3daafe3b4186f6b6457e08280a380f35b5050903461033c57602080600319360112610260578335916111c5611d8c565b82156108b45760015481516323b872dd60e01b815233818801908152306020820152604081018690526001600160a01b03928591839185169082908a90829060600103925af1801561136b578690611331575b6112229150611d2d565b61122e84600a54611d6b565b600a553385526005835260028286200154156112bf575b50907ff28f553039eefd947ef6386f58724f3e95e4a0aec309b9acccc11832f4f9371191338552600582526002818620336001600160601b0360a01b82541617815501611293858254611d6b565b9055338552600582524260018287200155519283523392a260015f805160206121bf8339815191525580f35b600754600160401b81101561131e577ff28f553039eefd947ef6386f58724f3e95e4a0aec309b9acccc11832f4f93711949596508060016113039201600755611c14565b819291549060031b9133831b921b1916179055849392611245565b634e487b7160e01b865260418752602486fd5b508381813d8311611364575b6113478183611cfe565b810103126113605761135b61122291611d20565b611218565b8580fd5b503d61133d565b83513d88823e3d90fd5b82843461033c577f1291737bc1f130247bdde7cb11d5ed967988c2052a47a007b5a2a862ef6048e8906113a736611bfe565b6113af611c72565b818552600f602052808386205582519182526020820152a180f35b82843461033c578160031936011261033c57602090600c549051908152f35b9390503461033c57602036600319011261033c576101609383519161140d83611cc5565b83835283602084015283858401528360608401528360808401528360a08401528360c0840152838284015261010084818501526114658686610120948186890152610140988980990152358152600360205220611e68565b9286519660018060a01b038551168852602085015160208901528085015190880152606084015160608801526080840151608088015260a084015160a088015260c084015160c088015280840151908701528083015115159086015280820151151590850152015190820152f35b838584346101d457602090816003193601126101d4576001600160a01b036114f9611be4565b16928382528252838120908451808385829554938481520190845285842092845b878282106115db5750505061153192500383611cfe565b8092819282935b8782518610156115ad5750828560051b8301015184526003835261155d888520611e68565b61010081015115611581575061157561157b91611e5a565b94611e5a565b93611538565b610120015190949015611598575b61157b90611e5a565b946115a561157b91611e5a565b95905061158f565b9151968452600690925290912054945193845260208401949094525060408201526060810191909152608090f35b855484526001958601958895509301920161151a565b5050823461033c576020928360031936011261026057813591611612611d8c565b3384526005855281842090600282019182549283156117ab57851561179b57600a5480871161178b5761164e611647336120c5565b8096611d6b565b871161177b578661165e91611dbb565b600a5561166c868254611dbb565b90554290820155600154835163a9059cbb60e01b815233818401908152602081018790529091889183916001600160a01b03169082908a90829060400103925af190811561177157869161173c575b501561170557507f629f8f8b4c79dec937cdf06c391dab93330be5d86ed036c891dfd4ad984d709392939482519485528401523392a260015f805160206121bf8339815191525580f35b825162461bcd60e51b8152908101869052601160248201527015da5d1a191c985dd85b0819985a5b1959607a1b6044820152606490fd5b90508681813d831161176a575b6117538183611cfe565b810103126113605761176490611d20565b876116bb565b503d611749565b84513d88823e3d90fd5b85516323499aa160e01b81528490fd5b8551631e9acf1760e31b81528490fd5b845163162908e360e11b81528390fd5b8451633a6a68b160e01b81528390fd5b82858534610260576020366003190112610260578135916117da611c72565b6117e2611d8c565b828452600360205281842080546001600160a01b0391908216156119c95760088101805460ff81166119b95760ff8160081c166119a9576201518061182b600685015442611dbb565b04600c5411611971576101009061ff00191617905560038101926118528454600a54611d6b565b600a5583548383541688526006602052611870868920918254611dbb565b9055868360025416918484541692803b156102605787516366a2a27960e11b81526001600160a01b0390941691840191825260208201899052839182908490829060400103925af180156119675761192d575b50916020917f13c0eae198e0ebbde94396b63f55efc371fd6159bf0086d1101714ce8166dc0493541693519085857f0be253503c49f8fb02046da3ef57bc2f5f881eb14ba5c2c26b54bf2fb4e7db078980a3548152a360015f805160206121bf8339815191525580f35b917f13c0eae198e0ebbde94396b63f55efc371fd6159bf0086d1101714ce8166dc0493919661195d602094611c9d565b96919350916118c3565b85513d89823e3d90fd5b855162461bcd60e51b81526020818701526012602482015271139bdd081e595d081a5b88191959985d5b1d60721b6044820152606490fd5b855163dc0e4f7160e01b81528590fd5b8551630bfc919760e21b81528590fd5b8351630e7e621d60e01b81528390fd5b82858534610260576119ea36611bfe565b9190926119f5611d8c565b8215611b2a5760015482516323b872dd60e01b81523381840190815230602082810191909152604082018790529392849183916001600160a01b03169082908b90829060600103925af1908115611b20578791611ae7575b5015611aa6575090847f546fabbda44be6a1b08cf435d8b2c3b8715154796cdd717e2e1467d5de0a49a692611a8485600a54611d6b565b600a5582519485528401523392a360015f805160206121bf8339815191525580f35b915162461bcd60e51b815291820152601960248201527f52657061796d656e74207472616e73666572206661696c6564000000000000006044820152606490fd5b90508281813d8311611b19575b611afe8183611cfe565b81010312611b1557611b0f90611d20565b87611a4d565b8680fd5b503d611af4565b84513d89823e3d90fd5b905163162908e360e11b8152fd5b915050833461026057602090816003193601126103e857909392906001600160a01b03611b63611be4565b1682528452828120918254808252858201908194845286842090845b818110611bd05750505081611b95910382611cfe565b83519485948186019282875251809352850193925b828110611bb957505050500390f35b835185528695509381019392810192600101611baa565b825484529288019260019283019201611b7f565b600435906001600160a01b0382168203611bfa57565b5f80fd5b6040906003190112611bfa576004359060243590565b600754811015611c495760075f527fa66cc928b5edb82af9bd49922954155ab7b0942694bea4ce44661d9a8736c68801905f90565b634e487b7160e01b5f52603260045260245ffd5b8054821015611c49575f5260205f2001905f90565b5f546001600160a01b03163303611c8557565b60405163118cdaa760e01b8152336004820152602490fd5b67ffffffffffffffff8111611cb157604052565b634e487b7160e01b5f52604160045260245ffd5b610160810190811067ffffffffffffffff821117611cb157604052565b60a0810190811067ffffffffffffffff821117611cb157604052565b90601f8019910116810190811067ffffffffffffffff821117611cb157604052565b51908115158203611bfa57565b15611d3457565b60405162461bcd60e51b815260206004820152600f60248201526e151c985b9cd9995c8819985a5b1959608a1b6044820152606490fd5b91908201809211611d7857565b634e487b7160e01b5f52601160045260245ffd5b5f805160206121bf8339815191526002815414611da95760029055565b604051633ee5aeb560e01b8152600490fd5b91908203918211611d7857565b80916101009283910312611bfa576040519182019082821067ffffffffffffffff831117611cb15760e091604052805183526020810151602084015260408101516040840152606081015160608401526080810151608084015260a081015160a0840152611e3860c08201611d20565b60c0840152015160e082015290565b81810292918115918404141715611d7857565b5f198114611d785760010190565b90604051611e7581611cc5565b82546001600160a01b0316815260018301546020820152600283015460408201526003830154606082015260048301546080820152600583015460a0820152600683015460c0820152600783015460e082015260088084015460ff8082161515610100850152911c161515610120820152600990920154610140830152565b6002546040516376aa7f9160e11b81526001600160a01b039283166004820152929160209184916024918391165afa918215611f89575f92611f56575b508115611f505761271090818102918183041490151715611d78570490565b50505f90565b90916020823d8211611f81575b81611f7060209383611cfe565b810103126101d4575051905f611f31565b3d9150611f63565b6040513d5f823e3d90fd5b61012c811015611fcc57505f8052600f6020527ff4803e074bd026baaf6ed2e288c9515f68c72fb7216eebdd7cae1718a53ec3755490565b610258811015612005575060015f52600f6020527f169f97de0d9a84d840042b17d3c6b9638b3d6fd9024c9eb0c7a306a17b49f88f5490565b610320111561203c5760025f52600f6020527fa74ba3945261e09fde15ba3db55005b205e61eeb4ad811ac0faa2b315bffeead5490565b60035f52600f6020527f45f76dafbbad695564362934e24d72eedc57f9fc1a65f39bca62176cc82968285490565b610100810151158015906120b7575b6120b2576120ae816120a961209860a064496cebb80095015142611dbb565b916080604082015191015190611e47565b611e47565b0490565b505f90565b506101208101511515612079565b60018060a01b038091165f52600560205260405f2090604051906120e882611ce2565b825416815260018201549081602082015260028301549060806004604083019584875260038101546060850152015491015215611f505761212d620151809142611dbb565b049051600581029080820460051490151715611d7857618e94916120ae91611e47565b5f90815260036020526040902080546001600160a01b0316156121ac5760ff6008820154166120b2576007612195600283015461218f610daf85611e68565b90611d6b565b91015481811015611f50576121a991611dbb565b90565b604051630e7e621d60e01b8152600490fdfe9b779b17422d0df92223018b32b4d1fa46e071723d6817e2486d003becc55f00a26469706673582212200e3233be5ade69157d897bd214345ed06859e76fb90fbefce43b379b216f605964736f6c63430008140033","linkReferences":{}},"methodIdentifiers":{"borrowForOptions(address,uint256)":"af792b72","borrowWithCollateral(uint256,uint256)":"def750ff","claimDefaultedLoan(uint256)":"27f8dce3","creditScoring()":"9883688f","defaultThresholdDays()":"5847ddbe","depositToPool(uint256)":"68b0e070","getBorrowerStats(address)":"3af86e66","getInterestRateForScore(uint256)":"ab1c297e","getLenderStats(address)":"f253fe09","getLoan(uint256)":"504006ca","getMaxBorrowAmount(address,uint256)":"80b88a2e","getPoolStats()":"bbb85188","getRemainingAmount(uint256)":"f6252ff2","getUserLoanCount(address)":"aa3b6867","getUserLoans(address)":"02bf321f","interestRates(uint256)":"9a4d8ba1","lenderDeposits(address)":"99398358","lenders(uint256)":"929eea21","loans(uint256)":"e1ec3c68","nextDebtId()":"b620ed53","nextLoanId()":"87c51459","owner()":"8da5cb5b","platformFeeCollected()":"ca5c5007","platformFeePercentage()":"cdd78cfc","poolBalance()":"96365d44","renounceOwnership()":"715018a6","repayLoan(uint256,uint256)":"8a700b53","repayOptionsDebt(uint256,uint256)":"09ae34b4","setDefaultThreshold(uint256)":"c5246bf5","setInterestRate(uint256,uint256)":"5b9dac89","stablecoin()":"e9cbd822","totalCollateralLocked(address)":"90e16141","totalInterestEarned()":"b7d93f34","transferOwnership(address)":"f2fde38b","userLoans(address,uint256)":"d8bad5bd","withdrawFromPool(uint256)":"30fc43ed"},"id":28}