{"abi":[{"type":"constructor","inputs":[{"name":"_creditScoring","type":"address","internalType":"address"},{"name":"_lendingPool","type":"address","internalType":"address"},{"name":"_underlyingToken","type":"address","internalType":"address"},{"name":"_stablecoin","type":"address","internalType":"address"}],"stateMutability":"nonpayable"},{"type":"function","name":"buyOption","inputs":[{"name":"_optionId","type":"uint256","internalType":"uint256"}],"outputs":[],"stateMutability":"nonpayable"},{"type":"function","name":"cancelOption","inputs":[{"name":"_optionId","type":"uint256","internalType":"uint256"}],"outputs":[],"stateMutability":"nonpayable"},{"type":"function","name":"collateralLocked","inputs":[{"name":"","type":"address","internalType":"address"}],"outputs":[{"name":"","type":"uint256","internalType":"uint256"}],"stateMutability":"view"},{"type":"function","name":"creditScoring","inputs":[],"outputs":[{"name":"","type":"address","internalType":"contract CreditScoring"}],"stateMutability":"view"},{"type":"function","name":"exerciseCall","inputs":[{"name":"_optionId","type":"uint256","internalType":"uint256"}],"outputs":[],"stateMutability":"nonpayable"},{"type":"function","name":"exercisePut","inputs":[{"name":"_optionId","type":"uint256","internalType":"uint256"}],"outputs":[],"stateMutability":"nonpayable"},{"type":"function","name":"getCollateralLocked","inputs":[{"name":"_user","type":"address","internalType":"address"}],"outputs":[{"name":"","type":"uint256","internalType":"uint256"}],"stateMutability":"view"},{"type":"function","name":"getOption","inputs":[{"name":"_optionId","type":"uint256","internalType":"uint256"}],"outputs":[{"name":"","type":"tuple","internalType":"struct Options.Option","components":[{"name":"optionId","type":"uint256","internalType":"uint256"},{"name":"writer","type":"address","internalType":"address"},{"name":"buyer","type":"address","internalType":"address"},{"name":"optionType","type":"uint8","internalType":"enum Options.OptionType"},{"name":"underlyingToken","type":"address","internalType":"address"},{"name":"strikePrice","type":"uint256","internalType":"uint256"},{"name":"premium","type":"uint256","internalType":"uint256"},{"name":"quantity","type":"uint256","internalType":"uint256"},{"name":"collateralLocked","type":"uint256","internalType":"uint256"},{"name":"creditBackedAmount","type":"uint256","internalType":"uint256"},{"name":"createdAt","type":"uint256","internalType":"uint256"},{"name":"expiryTime","type":"uint256","internalType":"uint256"},{"name":"status","type":"uint8","internalType":"enum Options.OptionStatus"},{"name":"isPaid","type":"bool","internalType":"bool"},{"name":"debtIdInCreditScoring","type":"uint256","internalType":"uint256"}]}],"stateMutability":"view"},{"type":"function","name":"getOptionStatus","inputs":[{"name":"_optionId","type":"uint256","internalType":"uint256"}],"outputs":[{"name":"","type":"uint8","internalType":"enum Options.OptionStatus"}],"stateMutability":"view"},{"type":"function","name":"getUserBoughtOptions","inputs":[{"name":"_user","type":"address","internalType":"address"}],"outputs":[{"name":"","type":"uint256[]","internalType":"uint256[]"}],"stateMutability":"view"},{"type":"function","name":"getUserBoughtOptionsCount","inputs":[{"name":"_user","type":"address","internalType":"address"}],"outputs":[{"name":"","type":"uint256","internalType":"uint256"}],"stateMutability":"view"},{"type":"function","name":"getUserWrittenOptions","inputs":[{"name":"_user","type":"address","internalType":"address"}],"outputs":[{"name":"","type":"uint256[]","internalType":"uint256[]"}],"stateMutability":"view"},{"type":"function","name":"getUserWrittenOptionsCount","inputs":[{"name":"_user","type":"address","internalType":"address"}],"outputs":[{"name":"","type":"uint256","internalType":"uint256"}],"stateMutability":"view"},{"type":"function","name":"lendingPool","inputs":[],"outputs":[{"name":"","type":"address","internalType":"contract ILendingPool"}],"stateMutability":"view"},{"type":"function","name":"nextOptionId","inputs":[],"outputs":[{"name":"","type":"uint256","internalType":"uint256"}],"stateMutability":"view"},{"type":"function","name":"options","inputs":[{"name":"","type":"uint256","internalType":"uint256"}],"outputs":[{"name":"optionId","type":"uint256","internalType":"uint256"},{"name":"writer","type":"address","internalType":"address"},{"name":"buyer","type":"address","internalType":"address"},{"name":"optionType","type":"uint8","internalType":"enum Options.OptionType"},{"name":"underlyingToken","type":"address","internalType":"address"},{"name":"strikePrice","type":"uint256","internalType":"uint256"},{"name":"premium","type":"uint256","internalType":"uint256"},{"name":"quantity","type":"uint256","internalType":"uint256"},{"name":"collateralLocked","type":"uint256","internalType":"uint256"},{"name":"creditBackedAmount","type":"uint256","internalType":"uint256"},{"name":"createdAt","type":"uint256","internalType":"uint256"},{"name":"expiryTime","type":"uint256","internalType":"uint256"},{"name":"status","type":"uint8","internalType":"enum Options.OptionStatus"},{"name":"isPaid","type":"bool","internalType":"bool"},{"name":"debtIdInCreditScoring","type":"uint256","internalType":"uint256"}],"stateMutability":"view"},{"type":"function","name":"owner","inputs":[],"outputs":[{"name":"","type":"address","internalType":"address"}],"stateMutability":"view"},{"type":"function","name":"platformFeeCollected","inputs":[],"outputs":[{"name":"","type":"uint256","internalType":"uint256"}],"stateMutability":"view"},{"type":"function","name":"platformFeePercentage","inputs":[],"outputs":[{"name":"","type":"uint256","internalType":"uint256"}],"stateMutability":"view"},{"type":"function","name":"renounceOwnership","inputs":[],"outputs":[],"stateMutability":"nonpayable"},{"type":"function","name":"setPlatformFee","inputs":[{"name":"_basisPoints","type":"uint256","internalType":"uint256"}],"outputs":[],"stateMutability":"nonpayable"},{"type":"function","name":"settleExpiredOption","inputs":[{"name":"_optionId","type":"uint256","internalType":"uint256"}],"outputs":[],"stateMutability":"nonpayable"},{"type":"function","name":"stablecoin","inputs":[],"outputs":[{"name":"","type":"address","internalType":"contract IERC20"}],"stateMutability":"view"},{"type":"function","name":"transferOwnership","inputs":[{"name":"newOwner","type":"address","internalType":"address"}],"outputs":[],"stateMutability":"nonpayable"},{"type":"function","name":"underlyingToken","inputs":[],"outputs":[{"name":"","type":"address","internalType":"contract IERC20"}],"stateMutability":"view"},{"type":"function","name":"userBoughtOptions","inputs":[{"name":"","type":"address","internalType":"address"},{"name":"","type":"uint256","internalType":"uint256"}],"outputs":[{"name":"","type":"uint256","internalType":"uint256"}],"stateMutability":"view"},{"type":"function","name":"userWrittenOptions","inputs":[{"name":"","type":"address","internalType":"address"},{"name":"","type":"uint256","internalType":"uint256"}],"outputs":[{"name":"","type":"uint256","internalType":"uint256"}],"stateMutability":"view"},{"type":"function","name":"withdrawFees","inputs":[],"outputs":[],"stateMutability":"nonpayable"},{"type":"function","name":"writeCall","inputs":[{"name":"_premium","type":"uint256","internalType":"uint256"},{"name":"_strikePrice","type":"uint256","internalType":"uint256"},{"name":"_daysToExpire","type":"uint256","internalType":"uint256"},{"name":"_quantity","type":"uint256","internalType":"uint256"}],"outputs":[],"stateMutability":"nonpayable"},{"type":"function","name":"writePut","inputs":[{"name":"_strikePrice","type":"uint256","internalType":"uint256"},{"name":"_premium","type":"uint256","internalType":"uint256"},{"name":"_quantity","type":"uint256","internalType":"uint256"},{"name":"_daysToExpiry","type":"uint256","internalType":"uint256"}],"outputs":[],"stateMutability":"nonpayable"},{"type":"event","name":"CollateralReturned","inputs":[{"name":"writer","type":"address","indexed":true,"internalType":"address"},{"name":"amount","type":"uint256","indexed":false,"internalType":"uint256"}],"anonymous":false},{"type":"event","name":"CreditBackedBorrowed","inputs":[{"name":"optionId","type":"uint256","indexed":true,"internalType":"uint256"},{"name":"amount","type":"uint256","indexed":false,"internalType":"uint256"}],"anonymous":false},{"type":"event","name":"OptionBought","inputs":[{"name":"optionId","type":"uint256","indexed":true,"internalType":"uint256"},{"name":"buyer","type":"address","indexed":true,"internalType":"address"},{"name":"premium","type":"uint256","indexed":false,"internalType":"uint256"}],"anonymous":false},{"type":"event","name":"OptionCancelled","inputs":[{"name":"optionId","type":"uint256","indexed":true,"internalType":"uint256"},{"name":"writer","type":"address","indexed":true,"internalType":"address"}],"anonymous":false},{"type":"event","name":"OptionCreated","inputs":[{"name":"optionId","type":"uint256","indexed":true,"internalType":"uint256"},{"name":"writer","type":"address","indexed":true,"internalType":"address"},{"name":"optionType","type":"uint8","indexed":false,"internalType":"enum Options.OptionType"},{"name":"strikePrice","type":"uint256","indexed":false,"internalType":"uint256"},{"name":"premium","type":"uint256","indexed":false,"internalType":"uint256"},{"name":"quantity","type":"uint256","indexed":false,"internalType":"uint256"},{"name":"expiryTime","type":"uint256","indexed":false,"internalType":"uint256"},{"name":"collateralLocked","type":"uint256","indexed":false,"internalType":"uint256"},{"name":"creditBackedAmount","type":"uint256","indexed":false,"internalType":"uint256"}],"anonymous":false},{"type":"event","name":"OptionExercised","inputs":[{"name":"optionId","type":"uint256","indexed":true,"internalType":"uint256"},{"name":"buyer","type":"address","indexed":true,"internalType":"address"}],"anonymous":false},{"type":"event","name":"OptionExpired","inputs":[{"name":"optionId","type":"uint256","indexed":true,"internalType":"uint256"},{"name":"writer","type":"address","indexed":true,"internalType":"address"}],"anonymous":false},{"type":"event","name":"OwnershipTransferred","inputs":[{"name":"previousOwner","type":"address","indexed":true,"internalType":"address"},{"name":"newOwner","type":"address","indexed":true,"internalType":"address"}],"anonymous":false},{"type":"error","name":"CannotWriteOptions","inputs":[]},{"type":"error","name":"InsufficientCollateral","inputs":[]},{"type":"error","name":"InvalidAddress","inputs":[]},{"type":"error","name":"InvalidAmount","inputs":[]},{"type":"error","name":"NotOptionBuyer","inputs":[]},{"type":"error","name":"NotOptionWriter","inputs":[]},{"type":"error","name":"OnlyLendingPool","inputs":[]},{"type":"error","name":"OptionAlreadyExercised","inputs":[]},{"type":"error","name":"OptionNotActive","inputs":[]},{"type":"error","name":"OptionNotFound","inputs":[]},{"type":"error","name":"OwnableInvalidOwner","inputs":[{"name":"owner","type":"address","internalType":"address"}]},{"type":"error","name":"OwnableUnauthorizedAccount","inputs":[{"name":"account","type":"address","internalType":"address"}]},{"type":"error","name":"PremiumNotPaid","inputs":[]},{"type":"error","name":"ReentrancyGuardReentrantCall","inputs":[]}],"bytecode":{"object":"0x6080346200019d57601f620025d938819003918201601f19168301916001600160401b03831184841017620001a1578084926080946040528339810103126200019d576200004d81620001b5565b6200005b60208301620001b5565b916200007860606200007060408401620001b5565b9201620001b5565b9060017f9b779b17422d0df92223018b32b4d1fa46e071723d6817e2486d003becc55f0055331562000185575f549360018060a01b03199433868216175f556040519060018060a01b03958691823391167f8be0079c531659141344cd1fd0a4f28419497f9722a3daafe3b4186f6b6457e05f80a360016009556019600a551690811580156200017a575b80156200016f575b801562000164575b620001555750849291839187600154161760015516856002541617600255168360035416176003551690600454161760045560405161240e9081620001cb8239f35b63e6c4247b60e01b8152600490fd5b508585161562000113565b50858416156200010b565b508583161562000103565b604051631e4fbdf760e01b81525f6004820152602490fd5b5f80fd5b634e487b7160e01b5f52604160045260245ffd5b51906001600160a01b03821682036200019d5756fe6080806040526004361015610012575f80fd5b5f90813560e01c90816259b2d0146120c2575080630f7dae1714611c8857806312e8e2c314611c295780631b40cc9014611bf05780631cbda5fe14611bb75780631ce5e9a6146119555780631f062d461461190d5780632495a599146118e457806324a045ca146111d8578063409e2205146117e4578063457af1b814611771578063476343ee14611659578063715018a6146115ff5780638a6b0e0a1461157c5780638da5cb5b146115555780639215abb0146115375780639883688f1461150e578063a59a9973146114e5578063bcb57d40146112a3578063c1f9f4b71461124d578063ca5c50071461122f578063cdd78cfc14611211578063d6c0d142146111d8578063de6bf63514610fdf578063e83fd93c14610ce6578063e9cbd82214610cbd578063f2fde38b14610c35578063f394a129146106be578063fba225b9146104d25763fc6ebd4a14610167575f80fd5b346104cf576020806003193601126104cb576004359061018561233d565b81835260058152604083208054156104b95760028101549160ff8360a01c1660028110156104a557151580610463575b50600b820192835460ff8116600481101561044f57610419576001600160a01b03918216330361043d5760081c60ff161561042b57600a830154421161041957600783018683825460068701549081811061033f575b5060035460405163a9059cbb60e01b8152336004820152602481019290925290928391861690829081604481015b03925af1908115610334578891610307575b50156102b65790600160089392549401541686525261026f60408520918254612278565b9055805460ff1916600117905533907f76b3900aee1539fba6bc0c92712c2959a1b89602c8a57aebbeff7c52bff1f1eb8380a360015f805160206123b98339815191525580f35b60405162461bcd60e51b815260048101849052602360248201527f436f6c6c61746572616c207472616e7366657220746f206275796572206661696044820152621b195960ea1b6064820152608490fd5b6103279150843d861161032d575b61031f8183612217565b810190612239565b5f61024b565b503d610315565b6040513d8a823e3d90fd5b819392506103509061039192612278565b92868487600254168860018c015416866040518097819582946357bc95b960e11b84526004840160209093929193604081019460018060a01b031681520152565b03925af1801561040e5787928b916103da575b507facb6ab389a351b6f58a1b2a793cfd5b27d0f802ef7be9fc54e7025e4ff687c4483610239949596604051908152a29061020b565b91935050813d8311610407575b6103f18183612217565b8101031261040357848991895f6103a4565b5f80fd5b503d6103e7565b6040513d85823e3d90fd5b60405163155fdee560e21b8152600490fd5b60405163b07fda7360e01b8152600490fd5b60405163faad71c360e01b8152600490fd5b634e487b7160e01b88526021600452602488fd5b61046d575f6101b5565b6064906040519062461bcd60e51b8252600482015260116024820152702737ba10309031b0b6361037b83a34b7b760791b6044820152fd5b634e487b7160e01b86526021600452602486fd5b604051637b9bd77360e01b8152600490fd5b5080fd5b80fd5b50346104cf576020806003193601126104cb576004356104f061233d565b80835260058252604083208054156104b957600b810160ff81541660048110156104a557610419576002820180546001600160a01b03908116151580610677575b508415610665576004805460059590950180546040516323b872dd60e01b8152339381019390935230602484015260448301529490918791839160649183918c91165af190811561065a57879161063d575b50156105ff57907f23ad4783d95ee2d3730fae4843757e102bd28a58ef48e2c6f8fe93aef120f5fb9291336001600160601b0360a01b82541617905561010061ff0019825416179055338552600784526105e083604087206122b8565b54926040519384523393a360015f805160206123b98339815191525580f35b60405162461bcd60e51b8152600481018690526016602482015275141c995b5a5d5b481c185e5b595b9d0819985a5b195960521b6044820152606490fd5b6106549150863d881161032d5761031f8183612217565b5f610583565b6040513d89823e3d90fd5b60405163162908e360e11b8152600490fd5b610681575f610531565b60405162461bcd60e51b815260048101879052601560248201527413dc1d1a5bdb88185b1c9958591e48189bdd59da1d605a1b6044820152606490fd5b50346104cf576106cd36612117565b91906106d761233d565b83158015610c2d575b8015610c25575b8015610c1d575b61066557600154604051638a58964b60e01b81523360048201526001600160a01b039091169290602081602481875afa90811561065a578791610bfe575b5015610bec576020602493604051948580926376aa7f9160e11b82523360048301525afa918215610be1578692610bab575b610787935061078f670de0b6b3a76400006107798389612251565b049361271095869186612251565b048094612278565b600480546040516323b872dd60e01b8152339281019290925230602483015260448201869052919591602090829060649082908d906001600160a01b03165af1908115610ba0578991610b81575b5015610b3c576107ef600a5484612251565b046108066107fd8285612278565b91600b54612285565b600b556009549561081687612292565b6009556003546201518092906001600160a01b0316821583850284900485141715610b285761084784840242612285565b60405191610854836121e6565b8a83523360208401528c60408401526001606084015260808301528a60a08301528660c08301528560e08301528761010083015288610120830152426101408301526101608201528a6101808201528a6101a08201528a6101c0820152888b52600560205260408b2090805182556001820160018060a01b036020830151166001600160601b0360a01b82541617905560018060a01b0360408201511660028301549060608301516002811015610b145760ff60a01b9060a01b16916affffffffffffffffffffff60a81b16171760028301556003820160018060a01b036080830151166001600160601b0360a01b82541617905560a0810151600483015560c0810151600583015560e08101516006830155610100810151600783015561012081015160088301556101408101516009830155610160810151600a8301556101808101516004811015610b00579282600c6101c08f989796946109e1610a4e966109c5600b60209a0191826122a0565b6101a0830151815461ff00191690151560081b61ff0016179055565b0151910155338652600683526109fa8b604088206122b8565b3386526008835260408620610a108a8254612285565b90556004805460405163a9059cbb60e01b8152339281019290925260248201929092529586926001600160a01b039092169183919082906044820190565b03925af1928315610af557610a7593610a6e918c91610ad6575b506122f1565b0242612285565b916040519660018852602088015260408701526060860152608085015260a084015260c08301527f4b957510398be8bd3a7cb598e2200a67b810ce728638e6d732e21a9ec0d0dd8560e03393a360015f805160206123b98339815191525580f35b610aef915060203d60201161032d5761031f8183612217565b5f610a68565b6040513d8c823e3d90fd5b634e487b7160e01b8d52602160045260248dfd5b634e487b7160e01b8f52602160045260248ffd5b634e487b7160e01b8b52601160045260248bfd5b60405162461bcd60e51b815260206004820152601a60248201527f436f6c6c61746572616c207472616e73666572206661696c65640000000000006044820152606490fd5b610b9a915060203d60201161032d5761031f8183612217565b5f6107dd565b6040513d8b823e3d90fd5b91506020833d602011610bd9575b81610bc660209383612217565b810103126104035761078792519161075e565b3d9150610bb9565b6040513d88823e3d90fd5b6040516333e8faaf60e11b8152600490fd5b610c17915060203d60201161032d5761031f8183612217565b5f61072c565b5082156106ee565b5080156106e7565b5081156106e0565b50346104cf5760203660031901126104cf57610c4f612135565b610c576121bb565b6001600160a01b03908116908115610ca4575f54826001600160601b0360a01b8216175f55167f8be0079c531659141344cd1fd0a4f28419497f9722a3daafe3b4186f6b6457e05f80a380f35b604051631e4fbdf760e01b815260048101849052602490fd5b50346104cf57806003193601126104cf576004546040516001600160a01b039091168152602090f35b50346104cf576020806003193601126104cb5760043590610d0561233d565b81835260058152604083208054156104b95760028101549160ff8360a01c1660028110156104a5576001141580610f9e575b50600b820192835460ff8116600481101561044f57610419576001600160a01b03918216330361043d5760081c60ff161561042b57600a8301544211610419576003546006840180546040516323b872dd60e01b8152336004820152306024820152604481019190915290918490829060649082908c9088165af1908115610334578891610f81575b5015610f4457610de0670de0b6b3a7640000916004860154905490612251565b04868360078601928354818110610eba575b506004805460405163a9059cbb60e01b815233928101929092526024820192909252928391861690829081604481015b03925af1908115610334578891610e9d575b5015610e585790600160089392549401541686525261026f60408520918254612278565b60405162461bcd60e51b815260048101849052601a60248201527f537461626c65636f696e207472616e73666572206661696c65640000000000006044820152606490fd5b610eb49150843d861161032d5761031f8183612217565b5f610e34565b8193925061035090610ecb92612278565b03925af1801561040e5787928b91610f14575b507facb6ab389a351b6f58a1b2a793cfd5b27d0f802ef7be9fc54e7025e4ff687c4483610e22949596604051908152a290610df2565b91935050813d8311610f3d575b610f2b8183612217565b8101031261040357848991895f610ede565b503d610f21565b60405162461bcd60e51b8152600481018490526015602482015274105cdcd95d081d1c985b9cd9995c8819985a5b1959605a1b6044820152606490fd5b610f989150843d861161032d5761031f8183612217565b5f610dc0565b610fa8575f610d37565b6064906040519062461bcd60e51b82526004820152601060248201526f2737ba103090383aba1037b83a34b7b760811b6044820152fd5b50346104cf576020806003193601126104cb57600435610ffd61233d565b80835260058252604083208054156104b95760018060a01b039081600182015416938433036111c657600b82019260ff845416600481101561044f5761041957600283015492818416151580611186575b50600701549260a01c60ff16600281101561044f5761112d5760035460405163a9059cbb60e01b81526001600160a01b03881660048201526024810185905292918291849160449183918c91165af191821561065a576008926110b8918991611110575b5061236c565b858752526110cb60408620918254612278565b9055805460ff191660031790557f89a43fd47467ad079e1a3e484f558948a678189908ca1b2055c4c3b63222b1af8380a360015f805160206123b98339815191525580f35b6111279150833d851161032d5761031f8183612217565b5f6110b2565b6004805460405163a9059cbb60e01b81526001600160a01b03891692810192909252602482018590529092918291849160449183918c91165af191821561065a57600892611181918991611110575061236c565b6110b8565b611190575f61104e565b60405162461bcd60e51b815260048101849052600e60248201526d105b1c9958591e48189bdd59da1d60921b6044820152606490fd5b6040516355afb53360e01b8152600490fd5b50346104cf5760203660031901126104cf576020906040906001600160a01b03611200612135565b168152600883522054604051908152f35b50346104cf57806003193601126104cf576020600a54604051908152f35b50346104cf57806003193601126104cf576020600b54604051908152f35b50346104cf5760403660031901126104cf57611267612135565b6001600160a01b03168152600660205260408120805460243592908310156104cf5760206112958484612158565b90546040519160031b1c8152f35b50346104cf576020806003193601126104cb576004356112c161233d565b80835260058252604083208054156104b957600b810160ff81541660048110156104a55761041957600a8201544211158061149d575b5060018060a01b0391826001820154169460ff6002600784015493015460a01c16600281101561044f578794939291906114435760035460405163a9059cbb60e01b81526001600160a01b03891660048201526024810184905291908190839060449082908a908a165af1918215610be15760089261137c918891611110575061236c565b8786525261138f60408520918254612278565b9055805460ff1916600217905560015416803b156104cb578190602460405180948193633ed8522760e11b83528860048401525af1801561143857611408575b507f35389c921d047949f57809053771a03c3c9a0cd56bd024749793e1c3a80cc4b88380a360015f805160206123b98339815191525580f35b67ffffffffffffffff819492941161142457604052915f6113cf565b634e487b7160e01b82526041600452602482fd5b6040513d86823e3d90fd5b6004805460405163a9059cbb60e01b81526001600160a01b038a1692810192909252602482018490529091908190839060449082908a908a165af1918215610be157600892611498918891611110575061236c565b61137c565b6114a7575f6112f7565b60405162461bcd60e51b815260048101859052601660248201527513dc1d1a5bdb881b9bdd08195e1c1a5c9959081e595d60521b6044820152606490fd5b50346104cf57806003193601126104cf576002546040516001600160a01b039091168152602090f35b50346104cf57806003193601126104cf576001546040516001600160a01b039091168152602090f35b50346104cf57806003193601126104cf576020600954604051908152f35b50346104cf57806003193601126104cf57546040516001600160a01b039091168152602090f35b50346104cf576020806003193601126104cb576001600160a01b0361159f612135565b1682526006815260408220916040518092808554928381520194835280832092905b8282106115e8576115e4856115d881890382612217565b60405191829182612181565b0390f35b8354865294850194600193840193909101906115c1565b50346104cf57806003193601126104cf576116186121bb565b80546001600160a01b03198116825581906001600160a01b03167f8be0079c531659141344cd1fd0a4f28419497f9722a3daafe3b4186f6b6457e08280a380f35b50346104cf57806003193601126104cf576116726121bb565b600b54801561173657600b8290556004805460405163a9059cbb60e01b815233928101929092526024820192909252906020908290604490829086906001600160a01b03165af190811561172b57829161170d575b50156116d05780f35b60405162461bcd60e51b8152602060048201526015602482015274119959481dda5d1a191c985dd85b0819985a5b1959605a1b6044820152606490fd5b611725915060203d811161032d5761031f8183612217565b5f6116c7565b6040513d84823e3d90fd5b60405162461bcd60e51b81526020600482015260136024820152724e6f206665657320746f20776974686472617760681b6044820152606490fd5b50346104cf576020806003193601126104cb576001600160a01b03611794612135565b1682526007815260408220916040518092808554928381520194835280832092905b8282106117cd576115e4856115d881890382612217565b8354865294850194600193840193909101906117b6565b50346104cf5760203660031901126104cf576004358152600560205260409020805490600160a01b60019003600182015416906002810154600160a01b60019003600383015416600483015460058401546006850154600786015491600887015493600988015495600a89015497600b8a015499600c01549a6040519c8d5260208d0152600160a01b60019003811660408d015260608c019060a01c60ff169061188d9161214b565b60808b015260a08a015260c089015260e08801526101008701526101208601526101408501526101608401526118ca610180840160ff83166120f6565b60081c60ff1615156101a08301526101c08201526101e090f35b50346104cf57806003193601126104cf576003546040516001600160a01b039091168152602090f35b50346104cf5760403660031901126104cf57611927612135565b6001600160a01b03168152600760205260408120805460243592908310156104cf5760206112958484612158565b50346104cf5760203660031901126104cf57806101c0604051611977816121e6565b8281528260208201528260408201528260608201528260808201528260a08201528260c08201528260e08201528261010082015282610120820152826101408201528261016082015282610180820152826101a08201520152600435815260056020526040812090604051906119ec826121e6565b8254825260018301546001600160a01b039081166020840152600280850154918216604085015260a082901c60ff161015611ba35760ff9060a01c16606083015260018060a01b036003840154166080830152600483015460a0830152600583015460c0830152600683015460e0830152600783015461010083015260088301546101208301526009830154610140830152600a830154610160830152600b83015490600460ff83161015611b8f57506101e09260ff8281600c941661018086015260081c1615156101a084015201546101c08201526101c0604051918051835260018060a01b03602082015116602084015260018060a01b036040820151166040840152611b036060820151606085019061214b565b60018060a01b03608082015116608084015260a081015160a084015260c081015160c084015260e081015160e0840152610100810151610100840152610120810151610120840152610140810151610140840152610160810151610160840152611b776101808201516101808501906120f6565b6101a081015115156101a084015201516101c0820152f35b634e487b7160e01b81526021600452602490fd5b634e487b7160e01b82526021600452602482fd5b50346104cf5760203660031901126104cf576020906040906001600160a01b03611bdf612135565b168152600683522054604051908152f35b50346104cf5760203660031901126104cf576020906040906001600160a01b03611c18612135565b168152600783522054604051908152f35b50346104cf5760203660031901126104cf57600435611c466121bb565b60648111611c5457600a5580f35b60405162461bcd60e51b815260206004820152600c60248201526b08ccaca40e8dede40d0d2ced60a31b6044820152606490fd5b50346104cf57611c9736612117565b611ca39391929361233d565b811580156120ba575b80156120b2575b80156120aa575b61066557600154604051638a58964b60e01b81523360048201526001600160a01b039091169290602081602481875afa90811561065a57879161208b575b5015610bec576020602493604051948580926376aa7f9160e11b82523360048301525afa8015610be1578690612053575b611d3a935061271093849184612251565b0491611d468382612278565b6003546040516323b872dd60e01b81523360048201523060248201526044810186905291959190602090829060649082908d906001600160a01b03165af1908115610ba0578991612034575b5015611fef57611da4600a5484612251565b04611db26107fd8285612278565b600b5560095495611dc287612292565b6009556003546201518092906001600160a01b0316821583850284900485141715610b2857611df384840242612285565b60405191611e00836121e6565b8a83523360208401528c60408401528c606084015260808301528a60a08301528660c08301528560e08301528761010083015288610120830152426101408301526101608201528a6101808201528a6101a08201528a6101c0820152888b52600560205260408b2090805182556001820160018060a01b036020830151166001600160601b0360a01b82541617905560018060a01b0360408201511660028301549060608301516002811015610b145760ff60a01b9060a01b16916affffffffffffffffffffff60a81b16171760028301556003820160018060a01b036080830151166001600160601b0360a01b82541617905560a0810151600483015560c0810151600583015560e08101516006830155610100810151600783015561012081015160088301556101408101516009830155610160810151600a8301556101808101516004811015610b00579282600c6101c08f989796946109e1611f70966109c5600b60209a0191826122a0565b03925af1928315610af557611f8f93610a6e918c91610ad657506122f1565b9160405196888852602088015260408701526060860152608085015260a084015260c08301527f4b957510398be8bd3a7cb598e2200a67b810ce728638e6d732e21a9ec0d0dd8560e03393a360015f805160206123b98339815191525580f35b60405162461bcd60e51b815260206004820152601a60248201527f436f6c6c61746572616c205472616e73666572204661696c65640000000000006044820152606490fd5b61204d915060203d60201161032d5761031f8183612217565b5f611d92565b506020833d602011612083575b8161206d60209383612217565b8101031261207f57611d3a9251611d29565b8580fd5b3d9150612060565b6120a4915060203d60201161032d5761031f8183612217565b5f611cf8565b508015611cba565b508315611cb3565b508215611cac565b9050346104cb5760203660031901126104cb576120f48160ff600b6040602096600435815260058852200154166120f6565bf35b9060048210156121035752565b634e487b7160e01b5f52602160045260245ffd5b60809060031901126104035760043590602435906044359060643590565b600435906001600160a01b038216820361040357565b9060028210156121035752565b805482101561216d575f5260205f2001905f90565b634e487b7160e01b5f52603260045260245ffd5b602090816040818301928281528551809452019301915f5b8281106121a7575050505090565b835185529381019392810192600101612199565b5f546001600160a01b031633036121ce57565b60405163118cdaa760e01b8152336004820152602490fd5b6101e0810190811067ffffffffffffffff82111761220357604052565b634e487b7160e01b5f52604160045260245ffd5b90601f8019910116810190811067ffffffffffffffff82111761220357604052565b90816020910312610403575180151581036104035790565b8181029291811591840414171561226457565b634e487b7160e01b5f52601160045260245ffd5b9190820391821161226457565b9190820180921161226457565b5f1981146122645760010190565b9060048110156121035760ff80198354169116179055565b805468010000000000000000811015612203576122da91600182018155612158565b819291549060031b91821b915f19901b1916179055565b156122f857565b60405162461bcd60e51b815260206004820152601760248201527f5072656d69756d207472616e73666572206661696c65640000000000000000006044820152606490fd5b5f805160206123b9833981519152600281541461235a5760029055565b604051633ee5aeb560e01b8152600490fd5b1561237357565b60405162461bcd60e51b815260206004820152601860248201527f436f6c6c61746572616c2072657475726e206661696c656400000000000000006044820152606490fdfe9b779b17422d0df92223018b32b4d1fa46e071723d6817e2486d003becc55f00a26469706673582212208c562edb273a53f259c4b5e6e5a1109155ecd9892cdc8d4af1a9b5f8b22e311964736f6c63430008140033","linkReferences":{}},"methodIdentifiers":{"buyOption(uint256)":"fba225b9","cancelOption(uint256)":"de6bf635","collateralLocked(address)":"24a045ca","creditScoring()":"9883688f","exerciseCall(uint256)":"fc6ebd4a","exercisePut(uint256)":"e83fd93c","getCollateralLocked(address)":"d6c0d142","getOption(uint256)":"1ce5e9a6","getOptionStatus(uint256)":"0059b2d0","getUserBoughtOptions(address)":"457af1b8","getUserBoughtOptionsCount(address)":"1b40cc90","getUserWrittenOptions(address)":"8a6b0e0a","getUserWrittenOptionsCount(address)":"1cbda5fe","lendingPool()":"a59a9973","nextOptionId()":"9215abb0","options(uint256)":"409e2205","owner()":"8da5cb5b","platformFeeCollected()":"ca5c5007","platformFeePercentage()":"cdd78cfc","renounceOwnership()":"715018a6","setPlatformFee(uint256)":"12e8e2c3","settleExpiredOption(uint256)":"bcb57d40","stablecoin()":"e9cbd822","transferOwnership(address)":"f2fde38b","underlyingToken()":"2495a599","userBoughtOptions(address,uint256)":"1f062d46","userWrittenOptions(address,uint256)":"c1f9f4b7","withdrawFees()":"476343ee","writeCall(uint256,uint256,uint256,uint256)":"0f7dae17","writePut(uint256,uint256,uint256,uint256)":"f394a129"},"id":29}