{"abi":[{"type":"constructor","inputs":[],"stateMutability":"nonpayable"},{"type":"function","name":"calculateCurrentDebt","inputs":[{"name":"_debtId","type":"uint256","internalType":"uint256"}],"outputs":[{"name":"","type":"uint256","internalType":"uint256"}],"stateMutability":"view"},{"type":"function","name":"canUserWriteOptions","inputs":[{"name":"_user","type":"address","internalType":"address"}],"outputs":[{"name":"","type":"bool","internalType":"bool"}],"stateMutability":"view"},{"type":"function","name":"createDebt","inputs":[{"name":"_debtor","type":"address","internalType":"address"},{"name":"_principalAmount","type":"uint256","internalType":"uint256"},{"name":"_penaltyAmount","type":"uint256","internalType":"uint256"}],"outputs":[],"stateMutability":"nonpayable"},{"type":"function","name":"creditProfiles","inputs":[{"name":"","type":"address","internalType":"address"}],"outputs":[{"name":"creditScore","type":"uint256","internalType":"uint256"},{"name":"amountBorrowed","type":"uint256","internalType":"uint256"},{"name":"totalRepaid","type":"uint256","internalType":"uint256"},{"name":"activeDebt","type":"uint256","internalType":"uint256"},{"name":"defaultedDebts","type":"uint256","internalType":"uint256"},{"name":"lastUpdated","type":"uint256","internalType":"uint256"},{"name":"isLockedFromWrite","type":"bool","internalType":"bool"},{"name":"lockedUntilTimestamp","type":"uint256","internalType":"uint256"}],"stateMutability":"view"},{"type":"function","name":"debtRecords","inputs":[{"name":"","type":"uint256","internalType":"uint256"}],"outputs":[{"name":"debtor","type":"address","internalType":"address"},{"name":"debtId","type":"uint256","internalType":"uint256"},{"name":"principalAmount","type":"uint256","internalType":"uint256"},{"name":"penaltyAmount","type":"uint256","internalType":"uint256"},{"name":"totalInterestAccrued","type":"uint256","internalType":"uint256"},{"name":"createdAt","type":"uint256","internalType":"uint256"},{"name":"deadline","type":"uint256","internalType":"uint256"},{"name":"amountRepaid","type":"uint256","internalType":"uint256"},{"name":"isCleared","type":"bool","internalType":"bool"},{"name":"isDefaulted","type":"bool","internalType":"bool"},{"name":"isPartiallyPaid","type":"bool","internalType":"bool"}],"stateMutability":"view"},{"type":"function","name":"getCollateralizationRatio","inputs":[{"name":"_user","type":"address","internalType":"address"}],"outputs":[{"name":"","type":"uint256","internalType":"uint256"}],"stateMutability":"view"},{"type":"function","name":"getCreditProfile","inputs":[{"name":"_user","type":"address","internalType":"address"}],"outputs":[{"name":"","type":"tuple","internalType":"struct CreditScoring.CreditProfile","components":[{"name":"creditScore","type":"uint256","internalType":"uint256"},{"name":"amountBorrowed","type":"uint256","internalType":"uint256"},{"name":"totalRepaid","type":"uint256","internalType":"uint256"},{"name":"activeDebt","type":"uint256","internalType":"uint256"},{"name":"defaultedDebts","type":"uint256","internalType":"uint256"},{"name":"lastUpdated","type":"uint256","internalType":"uint256"},{"name":"isLockedFromWrite","type":"bool","internalType":"bool"},{"name":"lockedUntilTimestamp","type":"uint256","internalType":"uint256"}]}],"stateMutability":"view"},{"type":"function","name":"getDebt","inputs":[{"name":"_debtId","type":"uint256","internalType":"uint256"}],"outputs":[{"name":"","type":"tuple","internalType":"struct CreditScoring.DebtRecord","components":[{"name":"debtor","type":"address","internalType":"address"},{"name":"debtId","type":"uint256","internalType":"uint256"},{"name":"principalAmount","type":"uint256","internalType":"uint256"},{"name":"penaltyAmount","type":"uint256","internalType":"uint256"},{"name":"totalInterestAccrued","type":"uint256","internalType":"uint256"},{"name":"createdAt","type":"uint256","internalType":"uint256"},{"name":"deadline","type":"uint256","internalType":"uint256"},{"name":"amountRepaid","type":"uint256","internalType":"uint256"},{"name":"isCleared","type":"bool","internalType":"bool"},{"name":"isDefaulted","type":"bool","internalType":"bool"},{"name":"isPartiallyPaid","type":"bool","internalType":"bool"}]}],"stateMutability":"view"},{"type":"function","name":"getMaxCallAmount","inputs":[{"name":"_user","type":"address","internalType":"address"}],"outputs":[{"name":"","type":"uint256","internalType":"uint256"}],"stateMutability":"view"},{"type":"function","name":"getUserDebtCount","inputs":[{"name":"_user","type":"address","internalType":"address"}],"outputs":[{"name":"","type":"uint256","internalType":"uint256"}],"stateMutability":"view"},{"type":"function","name":"getUserDebts","inputs":[{"name":"_user","type":"address","internalType":"address"}],"outputs":[{"name":"","type":"tuple[]","internalType":"struct CreditScoring.DebtRecord[]","components":[{"name":"debtor","type":"address","internalType":"address"},{"name":"debtId","type":"uint256","internalType":"uint256"},{"name":"principalAmount","type":"uint256","internalType":"uint256"},{"name":"penaltyAmount","type":"uint256","internalType":"uint256"},{"name":"totalInterestAccrued","type":"uint256","internalType":"uint256"},{"name":"createdAt","type":"uint256","internalType":"uint256"},{"name":"deadline","type":"uint256","internalType":"uint256"},{"name":"amountRepaid","type":"uint256","internalType":"uint256"},{"name":"isCleared","type":"bool","internalType":"bool"},{"name":"isDefaulted","type":"bool","internalType":"bool"},{"name":"isPartiallyPaid","type":"bool","internalType":"bool"}]}],"stateMutability":"view"},{"type":"function","name":"lendingPool","inputs":[],"outputs":[{"name":"","type":"address","internalType":"address"}],"stateMutability":"view"},{"type":"function","name":"nextDebtId","inputs":[],"outputs":[{"name":"","type":"uint256","internalType":"uint256"}],"stateMutability":"view"},{"type":"function","name":"optionsContract","inputs":[],"outputs":[{"name":"","type":"address","internalType":"address"}],"stateMutability":"view"},{"type":"function","name":"owner","inputs":[],"outputs":[{"name":"","type":"address","internalType":"address"}],"stateMutability":"view"},{"type":"function","name":"recordDefault","inputs":[{"name":"_debtor","type":"address","internalType":"address"},{"name":"_debtId","type":"uint256","internalType":"uint256"}],"outputs":[],"stateMutability":"nonpayable"},{"type":"function","name":"recordFullRepayment","inputs":[{"name":"_debtor","type":"address","internalType":"address"},{"name":"_debtId","type":"uint256","internalType":"uint256"},{"name":"_totalRepaid","type":"uint256","internalType":"uint256"}],"outputs":[],"stateMutability":"nonpayable"},{"type":"function","name":"recordPartialPayment","inputs":[{"name":"_debtor","type":"address","internalType":"address"},{"name":"_debtId","type":"uint256","internalType":"uint256"},{"name":"_amountPaid","type":"uint256","internalType":"uint256"}],"outputs":[],"stateMutability":"nonpayable"},{"type":"function","name":"recordSuccessfulOption","inputs":[{"name":"_writer","type":"address","internalType":"address"}],"outputs":[],"stateMutability":"nonpayable"},{"type":"function","name":"renounceOwnership","inputs":[],"outputs":[],"stateMutability":"nonpayable"},{"type":"function","name":"setLendingPool","inputs":[{"name":"_lendingPool","type":"address","internalType":"address"}],"outputs":[],"stateMutability":"nonpayable"},{"type":"function","name":"setOptionsContract","inputs":[{"name":"_optionsContract","type":"address","internalType":"address"}],"outputs":[],"stateMutability":"nonpayable"},{"type":"function","name":"transferOwnership","inputs":[{"name":"newOwner","type":"address","internalType":"address"}],"outputs":[],"stateMutability":"nonpayable"},{"type":"function","name":"userDebts","inputs":[{"name":"","type":"address","internalType":"address"},{"name":"","type":"uint256","internalType":"uint256"}],"outputs":[{"name":"debtor","type":"address","internalType":"address"},{"name":"debtId","type":"uint256","internalType":"uint256"},{"name":"principalAmount","type":"uint256","internalType":"uint256"},{"name":"penaltyAmount","type":"uint256","internalType":"uint256"},{"name":"totalInterestAccrued","type":"uint256","internalType":"uint256"},{"name":"createdAt","type":"uint256","internalType":"uint256"},{"name":"deadline","type":"uint256","internalType":"uint256"},{"name":"amountRepaid","type":"uint256","internalType":"uint256"},{"name":"isCleared","type":"bool","internalType":"bool"},{"name":"isDefaulted","type":"bool","internalType":"bool"},{"name":"isPartiallyPaid","type":"bool","internalType":"bool"}],"stateMutability":"view"},{"type":"event","name":"CreditScoreUpdated","inputs":[{"name":"user","type":"address","indexed":true,"internalType":"address"},{"name":"newScore","type":"uint256","indexed":false,"internalType":"uint256"},{"name":"reason","type":"string","indexed":false,"internalType":"string"}],"anonymous":false},{"type":"event","name":"DebtCreated","inputs":[{"name":"debtor","type":"address","indexed":true,"internalType":"address"},{"name":"debtId","type":"uint256","indexed":true,"internalType":"uint256"},{"name":"principal","type":"uint256","indexed":false,"internalType":"uint256"}],"anonymous":false},{"type":"event","name":"DebtDefaulted","inputs":[{"name":"debtor","type":"address","indexed":true,"internalType":"address"},{"name":"debtId","type":"uint256","indexed":false,"internalType":"uint256"}],"anonymous":false},{"type":"event","name":"DebtFullyRepaid","inputs":[{"name":"debtor","type":"address","indexed":true,"internalType":"address"},{"name":"debtId","type":"uint256","indexed":true,"internalType":"uint256"},{"name":"totalRepaid","type":"uint256","indexed":false,"internalType":"uint256"}],"anonymous":false},{"type":"event","name":"DebtPartiallyPaid","inputs":[{"name":"debtor","type":"address","indexed":true,"internalType":"address"},{"name":"debtId","type":"uint256","indexed":true,"internalType":"uint256"},{"name":"amountPaid","type":"uint256","indexed":false,"internalType":"uint256"}],"anonymous":false},{"type":"event","name":"LendingPoolSet","inputs":[{"name":"lendingPool","type":"address","indexed":true,"internalType":"address"}],"anonymous":false},{"type":"event","name":"OptionsContractSet","inputs":[{"name":"optionsContract","type":"address","indexed":true,"internalType":"address"}],"anonymous":false},{"type":"event","name":"OwnershipTransferred","inputs":[{"name":"previousOwner","type":"address","indexed":true,"internalType":"address"},{"name":"newOwner","type":"address","indexed":true,"internalType":"address"}],"anonymous":false},{"type":"event","name":"UserLockedFromWriting","inputs":[{"name":"user","type":"address","indexed":true,"internalType":"address"},{"name":"reason","type":"string","indexed":false,"internalType":"string"}],"anonymous":false},{"type":"event","name":"UserUnlockedFromWriting","inputs":[{"name":"user","type":"address","indexed":true,"internalType":"address"}],"anonymous":false},{"type":"error","name":"DebtAlreadyCleared","inputs":[]},{"type":"error","name":"DebtAlreadyDefaulted","inputs":[]},{"type":"error","name":"DebtIsDefaulted","inputs":[]},{"type":"error","name":"DebtMismatch","inputs":[]},{"type":"error","name":"DebtNotFound","inputs":[]},{"type":"error","name":"InvalidAddress","inputs":[]},{"type":"error","name":"InvalidDebtor","inputs":[]},{"type":"error","name":"InvalidPrincipal","inputs":[]},{"type":"error","name":"OnlyPoolOrOptions","inputs":[]},{"type":"error","name":"OwnableInvalidOwner","inputs":[{"name":"owner","type":"address","internalType":"address"}]},{"type":"error","name":"OwnableUnauthorizedAccount","inputs":[{"name":"account","type":"address","internalType":"address"}]}],"bytecode":{"object":"0x6080806040523461007d573315610068575f8054336001600160a01b03198216811783556040519290916001600160a01b0316907f8be0079c531659141344cd1fd0a4f28419497f9722a3daafe3b4186f6b6457e09080a3600160065561194190816100828239f35b631e4fbdf760e01b81525f6004820152602490fd5b5f80fdfe60806040818152600480361015610014575f80fd5b5f9260e08435811c9182630328c3931461139157508163079bafe3146112945781630d551e7b14611226578163113aa8b1146111ae578163365e84d51461111257816345171f261461108b5781634a7d7a6814610e8457816357c85c9714610e4b578163715018a614610df15781637672a04514610dca57816378c8390c14610cb95781637db0a44e14610b9b5781638a58964b14610b6b5781638da5cb5b14610b425781639d872a251461094c578163a59a997314610924578163b3a1e0ed146108a9578163b620ed5314610889578163c58c1684146104e8578163c9dd1f3c1461046457508063cd4544f214610207578063de056bc9146101e4578063ed54ff22146101b35763f2fde38b1461012a575f80fd5b346101af5760203660031901126101af576101436113b6565b9061014c6114fb565b6001600160a01b0391821692831561019957505082546001600160a01b0319811683178455167f8be0079c531659141344cd1fd0a4f28419497f9722a3daafe3b4186f6b6457e08380a380f35b51631e4fbdf760e01b8152908101849052602490fd5b8280fd5b5050346101e05760203660031901126101e0576020906101d96101d46113b6565b611671565b9051908152f35b5080fd5b50913461020457602036600319011261020457506101d96020923561180f565b80fd5b509190346101e057806003193601126101e0576102226113b6565b835490916001600160a01b0391602435908316330361045457808552602092600384528286209080825416951680950361044457600801805460ff8160081c16610434576101009061ff00191617905583855260018352818520868101805490600182018092116104195755600381018054801561042c575f19810190811161041957905b5560068101805460ff191660011790555f196007909101556102c761159d565b95600f87526e111959985d5b1d081bdb881919589d608a1b84880152848652600184528286209081541561040f575b81549060968211156104065760951982019182116103f35750905b8181556005429101558251908152828482015286518084830152865b8181106103df575092857f502fa21a7d0489431ba0ed53f05f80cd6c1835d4dd415a1ec3a93b2ee4316e6c867f4f7d2144161f5b58b6fc1265b7eec32800c8f7ca149d6f169eb3e55830f8a4ee9795835f805160206118ec833981519152876060818f9c829d83827f44656661756c74206f6e20646562742072657061796d656e74000000000000009e010152601f80199101168101030190a28451908152a26019815193808552840152820152a280f35b88810186015183820160600152850161032d565b634e487b7160e01b885260119052602487fd5b50508590610311565b61012c82556102f6565b634e487b7160e01b885260118952602488fd5b5086906102a7565b8351632f49fe1560e01b81528890fd5b8251630fd551df60e31b81528790fd5b81516341ac9a4960e11b81528690fd5b9050346104e45760203660031901126104e45782846104e293816101406104d9956101609961049161157c565b9181835281602084015281888401528160608401528160808401528160a08401528160c084015282015282610100820152826101208201520152358152600360205220611784565b91518092611481565bf35b8380fd5b828585346101e0576104f936611457565b855491936001600160a01b03928316330361087a57848652602092600384528187209080825416951680950361086a576008810180549160ff831661085757846007820155600160ff198094161782558689526001865283892091600383019182548015155f1461084d575f19810190811161083a57906006915b845560028501610585898254611526565b905542600586015501544211908115908161082a575b50156106fc57506105aa61159d565b9960168b527513db8b5d1a5b5948199d5b1b081c995c185e5b595b9d60521b878c0152878a5260018752848a20908154156106f2575b815490600a82018092116106df57506103e890818111156106d75750905b818155600542910155845190815284878201528a5180868301528a5b8181106106c357508a9b50975f805160206118ec833981519152826060818c859e9f837fe1d055ddd889f417c7bcd676817e4622d849352d29bf2802a220940ee703feed9f829c9b9a99010152601f80199101168101030190a25b5415610687575b50505051908152a380f35b600791600682019081541690550155847f5774d1ba1068cd34c1a7ee31f244247ba47813f3187dd2b9919cb7429dc0bc098880a286888061067c565b8c810189015183820160600152880161061a565b9050906105fe565b634e487b7160e01b8c526011905260248bfd5b61012c82556105e0565b610730575b889950907fe1d055ddd889f417c7bcd676817e4622d849352d29bf2802a220940ee703feed9697989291610675565b61073861159d565b99600e8b526d13185d19481c995c185e5b595b9d60921b878c0152878a5260018752848a2090815415610820575b81549060328211156108175760311982019182116106df5750905b818155600542910155845190815284878201528a5180868301528a5b81811061080357508a9b50975f805160206118ec833981519152826060818c859e9f837fe1d055ddd889f417c7bcd676817e4622d849352d29bf2802a220940ee703feed9f829c9b9a99010152601f80199101168101030190a290919298979650610701565b8c810189015183820160600152880161079d565b50508990610781565b61012c8255610766565b60ff91505460101c16158c61059b565b634e487b7160e01b8c5260118d5260248cfd5b506006908b610574565b83516001620bac0760e31b031981528a90fd5b8151630fd551df60e31b81528890fd5b516341ac9a4960e11b81528690fd5b505050346101e057816003193601126101e0576020906006549051908152f35b50509134610204576020366003190112610204578161092091843581526003602052209160018060a01b03835416906001840154916002850154946003810154968101546005820154600683015491600860078501549401549551998a9960ff8860101c169860ff808a60081c169916978c6113fd565b0390f35b5050346101af57826003193601126101af575490516001600160a01b03909116815260209150f35b84915083346101af5761095e36611457565b90939160018060a01b0390816005541633141580610b35575b610b255716918215610b15578415610b05576006549062278d004201804211610419579087916109a561157c565b94868652846020870152888887015260608601528260808601524260a086015260c0850152830152856101008301528561012083015285610140830152855260036020526109f5818487206115bd565b818552600260205282852080549068010000000000000000821015610af25790610a24916001820181556113d0565b610ae05790610a32916115bd565b80845260016020528184206003810180549060018201809211610acd575560018101610a5f858254611526565b9055426005820155805415610ac2575b507fc1b621921906be49d0631a297d31eb7f2de6e6ba1ab0f5281db5a7c582fed0ad602060065494859451908152a35f198114610aaf5760010160065580f35b506011602492634e487b7160e01b835252fd5b61012c905585610a6f565b634e487b7160e01b875260118852602487fd5b634e487b7160e01b8652858752602486fd5b634e487b7160e01b875260418852602487fd5b835163dfee2c0b60e01b81528790fd5b835163018cdcc360e41b81528790fd5b84516341ac9a4960e11b81528890fd5b5081885416331415610977565b505050346101e057816003193601126101e057905490516001600160a01b039091168152602090f35b505050346101e05760203660031901126101e057602090610b92610b8d6113b6565b6116bd565b90519015158152f35b5050346101af57602091826003193601126104e457610bb86113b6565b6005549093906001600160a01b039081163303610caa57610bd761159d565b94601886527f5375636365737366756c206f7074696f6e2065787069727900000000000000008387015216938486526001825282862093845415610ca0575b845490601982018092116103f357506103e89081811115610c985750935b8481556005429101558251938452828285015280518093850152855b838110610c8457505050906060818386835f805160206118ec8339815191529684010152601f80199101168101030190a280f35b818101830151858201606001528201610c50565b905093610c34565b61012c8555610c16565b5050516341ac9a4960e11b8152fd5b5050346101af576020806003193601126104e4576001600160a01b03610cdd6113b6565b1684526002815282842093845467ffffffffffffffff808211610db757855194600583901b603f01601f1916860191821186831017610da45750859694939296528083528183018094875282872087915b838310610d7d57505050508351938185019282865251809352840192945b828110610d595784840385f35b9091928261016082610d6e6001948a51611481565b01960191019492919094610d4c565b600985600192610d91859c98999a9c611784565b8152019201920191909795949397610d2e565b634e487b7160e01b845260419052602483fd5b634e487b7160e01b835260418552602483fd5b505050346101e05760203660031901126101e0576020906101d9610dec6113b6565b611748565b8434610204578060031936011261020457610e0a6114fb565b80546001600160a01b03198116825581906001600160a01b03167f8be0079c531659141344cd1fd0a4f28419497f9722a3daafe3b4186f6b6457e08280a380f35b505050346101e05760203660031901126101e05760209181906001600160a01b03610e746113b6565b1681526002845220549051908152f35b828585346101e057610e9536611457565b855491936001600160a01b03928316330361087a57848652602092600384528187209080825416951680950361086a5760088101805460ff81166108575760ff8160081c1661107b57620100009060078401610ef2878254611526565b905562ff0000191617905562278d00420190814211610419576006019081558487526001845260078288209160068301600160ff1982541617905554910155610f3961159d565b96601f88527f5061727469616c207061796d656e74202d206d697373656420446179203330009081858a01528588526001855282882090815415611071575b81549060148211156110685760131982019182116110555750905b8181556005429101558251908152828582015288518084830152885b818110611041575060607f8a1576a42b9c022646ed861de5b4f3a3edaf26234be5c45983efee6e9ce9035196959493885f805160206118ec8339815191528584818f977f4f7d2144161f5b58b6fc1265b7eec32800c8f7ca149d6f169eb3e55830f8a4ee988382889c010152601f80199101168101030190a2845190878252601f8883015285820152a251908152a380f35b8a8101870151838201606001528601610faf565b634e487b7160e01b8a5260119052602489fd5b50508790610f93565b61012c8255610f78565b83516397dd277160e01b81528a90fd5b9050346104e45760203660031901126104e4576101009383906001600160a01b036110b46113b6565b16815260016020522080549360018201549360028301549060038401549084015491600585015493600760ff600688015416960154978151998a5260208a01528801526060870152608086015260a0850152151560c0840152820152f35b828585346101e057806003193601126101e05761112d6113b6565b6001600160a01b0390811683526002602052818320805491936024359283101561020457506109209291611160916113d0565b5092835416906001840154916002850154946003810154968101546005820154600683015491600860078501549401549551998a9960ff8860101c169860ff808a60081c169916978c6113fd565b5050346101af5760203660031901126101af576111c96113b6565b6111d16114fb565b6001600160a01b0316918215611219575080546001600160a01b031916821790557f1222804283c650162c0f858b42dcc4564e940f0cc2b3f001bcd6af8aa00a2f308280a280f35b5163e6c4247b60e01b8152fd5b5050346101af5760203660031901126101af576112416113b6565b6112496114fb565b6001600160a01b0316918215611219575050600580546001600160a01b031916821790557f1a045d434f403ac573e546f9c8668d91bd76e66cad29c4bcca33514ca54777c48280a280f35b919050346104e45760203660031901126104e45782610100946112b56113b6565b81856112bf611547565b82815282602082015282868201528260608201528260808201528260a08201528260c0820152015260018060a01b031681526001602052206112ff611547565b918154948584526001830154916020850192835260028401549180860192835260038501549160608701928352850154926080870193845260058601549460a0880195865288600760ff60068a0154169860c08b019915158a52015498019788528251998a525160208a015251908801525160608701525160808601525160a085015251151560c08401525190820152f35b8590346101e057816003193601126101e0576005546001600160a01b03168152602090f35b600435906001600160a01b03821682036113cc57565b5f80fd5b80548210156113e9575f52600960205f20910201905f90565b634e487b7160e01b5f52603260045260245ffd5b999693909b9a979491926101409996936101608c019d60018060a01b03168c5260208c015260408b015260608a0152608089015260a088015260c087015260e0860152151561010085015215156101208401521515910152565b60609060031901126113cc576004356001600160a01b03811681036113cc57906024359060443590565b60018060a01b0381511682526020810151602083015260408101516040830152606081015160608301526080810151608083015260a081015160a083015260c081015160c083015260e081015160e08301526101008082015115159083015261012080820151151590830152610140809101511515910152565b5f546001600160a01b0316330361150e57565b60405163118cdaa760e01b8152336004820152602490fd5b9190820180921161153357565b634e487b7160e01b5f52601160045260245ffd5b60405190610100820182811067ffffffffffffffff82111761156857604052565b634e487b7160e01b5f52604160045260245ffd5b60405190610160820182811067ffffffffffffffff82111761156857604052565b604051906040820182811067ffffffffffffffff82111761156857604052565b60089060018060a01b038351166bffffffffffffffffffffffff60a01b8254161781556020830151600182015560408301516002820155606083015160038201556080830151600482015560a0830151600582015560c0830151600682015560e083015160078201550190610100810151151590825460ff62ff000061014061ff00610120860151151560081b16940151151560101b1693169062ffffff19161717179055565b9190820391821161153357565b6001600160a01b03165f9081526001602052604090205461012c81101561169757505f90565b6102588110156116a8575061271090565b61032011156116b75761138890565b6109c490565b6001600160a01b03165f9081526001602052604090206116db611547565b9080549182815260018201546020820152600282015460408201526003820154606082015260048201546080820152600582015460a082015260e0600760ff6006850154161515938460c085015201549101526117435761012c1161173f57600190565b5f90565b505f90565b6001600160a01b03165f90815260016020526040902054610258811061176e57505f1990565b61012c1161173f5769010f0cf064dd5920000090565b9060ff600861179161157c565b84546001600160a01b0316815260018501546020820152600285015460408201526003850154606082015260048501546080820152600585015460a0820152600685015460c0820152600785015460e08201529301548181161515610100850152600881901c8216151561012085015260101c161515610140830152565b5f908152600360205261182460408220611784565b610100810151158015906118dd575b6118d95761184560a082015142611664565b604082018051610112808202918083048214811517156118c5578402029281840414901517156118b15760e09161188e64141dd760006118939351920491606086015190611526565b611526565b91015190818111156118ac576118a99250611664565b90565b505090565b634e487b7160e01b84526011600452602484fd5b634e487b7160e01b87526011600452602487fd5b5090565b50610120810151151561183356fe20c4f18f66e2a8fc67b7f1c91b3c44a72189e2e824caa7075c958b1e86c870d9a26469706673582212202b30e2df5cdc65b5d15a6d4b4b52943b75bb1fdef2c303f3a339ac68b1385cab64736f6c63430008140033","linkReferences":{}},"methodIdentifiers":{"calculateCurrentDebt(uint256)":"de056bc9","canUserWriteOptions(address)":"8a58964b","createDebt(address,uint256,uint256)":"9d872a25","creditProfiles(address)":"45171f26","debtRecords(uint256)":"b3a1e0ed","getCollateralizationRatio(address)":"ed54ff22","getCreditProfile(address)":"079bafe3","getDebt(uint256)":"c9dd1f3c","getMaxCallAmount(address)":"7672a045","getUserDebtCount(address)":"57c85c97","getUserDebts(address)":"78c8390c","lendingPool()":"a59a9973","nextDebtId()":"b620ed53","optionsContract()":"0328c393","owner()":"8da5cb5b","recordDefault(address,uint256)":"cd4544f2","recordFullRepayment(address,uint256,uint256)":"c58c1684","recordPartialPayment(address,uint256,uint256)":"4a7d7a68","recordSuccessfulOption(address)":"7db0a44e","renounceOwnership()":"715018a6","setLendingPool(address)":"113aa8b1","setOptionsContract(address)":"0d551e7b","transferOwnership(address)":"f2fde38b","userDebts(address,uint256)":"365e84d5"},"id":27}